{
  "_format": "hh-sol-artifact-1",
  "contractName": "CVRegistry",
  "sourceName": "contracts/CVRegistry.sol",
  "abi": [
    {
      "inputs": [],
      "stateMutability": "nonpayable",
      "type": "constructor"
    },
    {
      "inputs": [
        {
          "internalType": "address",
          "name": "owner",
          "type": "address"
        }
      ],
      "name": "OwnableInvalidOwner",
      "type": "error"
    },
    {
      "inputs": [
        {
          "internalType": "address",
          "name": "account",
          "type": "address"
        }
      ],
      "name": "OwnableUnauthorizedAccount",
      "type": "error"
    },
    {
      "inputs": [],
      "name": "ReentrancyGuardReentrantCall",
      "type": "error"
    },
    {
      "anonymous": false,
      "inputs": [
        {
          "indexed": true,
          "internalType": "address",
          "name": "approver",
          "type": "address"
        }
      ],
      "name": "ApproverAdded",
      "type": "event"
    },
    {
      "anonymous": false,
      "inputs": [
        {
          "indexed": true,
          "internalType": "address",
          "name": "approver",
          "type": "address"
        }
      ],
      "name": "ApproverRemoved",
      "type": "event"
    },
    {
      "anonymous": false,
      "inputs": [
        {
          "indexed": true,
          "internalType": "address",
          "name": "user",
          "type": "address"
        },
        {
          "indexed": true,
          "internalType": "address",
          "name": "approver",
          "type": "address"
        },
        {
          "indexed": false,
          "internalType": "uint256",
          "name": "timestamp",
          "type": "uint256"
        }
      ],
      "name": "CVApproved",
      "type": "event"
    },
    {
      "anonymous": false,
      "inputs": [
        {
          "indexed": true,
          "internalType": "address",
          "name": "user",
          "type": "address"
        },
        {
          "indexed": true,
          "internalType": "address",
          "name": "rejector",
          "type": "address"
        },
        {
          "indexed": false,
          "internalType": "string",
          "name": "reason",
          "type": "string"
        },
        {
          "indexed": false,
          "internalType": "uint256",
          "name": "timestamp",
          "type": "uint256"
        }
      ],
      "name": "CVRejected",
      "type": "event"
    },
    {
      "anonymous": false,
      "inputs": [
        {
          "indexed": true,
          "internalType": "address",
          "name": "user",
          "type": "address"
        },
        {
          "indexed": false,
          "internalType": "string",
          "name": "ipfsHash",
          "type": "string"
        },
        {
          "indexed": false,
          "internalType": "string",
          "name": "metadataHash",
          "type": "string"
        },
        {
          "indexed": false,
          "internalType": "uint256",
          "name": "timestamp",
          "type": "uint256"
        }
      ],
      "name": "CVSubmitted",
      "type": "event"
    },
    {
      "anonymous": false,
      "inputs": [
        {
          "indexed": true,
          "internalType": "address",
          "name": "user",
          "type": "address"
        },
        {
          "indexed": false,
          "internalType": "string",
          "name": "oldIpfsHash",
          "type": "string"
        },
        {
          "indexed": false,
          "internalType": "string",
          "name": "newIpfsHash",
          "type": "string"
        },
        {
          "indexed": false,
          "internalType": "string",
          "name": "newMetadataHash",
          "type": "string"
        },
        {
          "indexed": false,
          "internalType": "uint256",
          "name": "timestamp",
          "type": "uint256"
        }
      ],
      "name": "CVUpdated",
      "type": "event"
    },
    {
      "anonymous": false,
      "inputs": [
        {
          "indexed": true,
          "internalType": "address",
          "name": "previousOwner",
          "type": "address"
        },
        {
          "indexed": true,
          "internalType": "address",
          "name": "newOwner",
          "type": "address"
        }
      ],
      "name": "OwnershipTransferred",
      "type": "event"
    },
    {
      "inputs": [
        {
          "internalType": "address",
          "name": "_approver",
          "type": "address"
        }
      ],
      "name": "addApprover",
      "outputs": [],
      "stateMutability": "nonpayable",
      "type": "function"
    },
    {
      "inputs": [
        {
          "internalType": "address",
          "name": "_user",
          "type": "address"
        }
      ],
      "name": "approveCV",
      "outputs": [],
      "stateMutability": "nonpayable",
      "type": "function"
    },
    {
      "inputs": [
        {
          "internalType": "address",
          "name": "",
          "type": "address"
        }
      ],
      "name": "approvers",
      "outputs": [
        {
          "internalType": "bool",
          "name": "",
          "type": "bool"
        }
      ],
      "stateMutability": "view",
      "type": "function"
    },
    {
      "inputs": [
        {
          "internalType": "address",
          "name": "",
          "type": "address"
        }
      ],
      "name": "cvRecords",
      "outputs": [
        {
          "internalType": "string",
          "name": "ipfsHash",
          "type": "string"
        },
        {
          "internalType": "string",
          "name": "metadataHash",
          "type": "string"
        },
        {
          "internalType": "enum CVRegistry.CVStatus",
          "name": "status",
          "type": "uint8"
        },
        {
          "internalType": "uint256",
          "name": "submissionTime",
          "type": "uint256"
        },
        {
          "internalType": "uint256",
          "name": "lastUpdateTime",
          "type": "uint256"
        },
        {
          "internalType": "address",
          "name": "submitter",
          "type": "address"
        },
        {
          "internalType": "string",
          "name": "rejectionReason",
          "type": "string"
        }
      ],
      "stateMutability": "view",
      "type": "function"
    },
    {
      "inputs": [
        {
          "internalType": "address",
          "name": "_user",
          "type": "address"
        }
      ],
      "name": "getCVRecord",
      "outputs": [
        {
          "components": [
            {
              "internalType": "string",
              "name": "ipfsHash",
              "type": "string"
            },
            {
              "internalType": "string",
              "name": "metadataHash",
              "type": "string"
            },
            {
              "internalType": "enum CVRegistry.CVStatus",
              "name": "status",
              "type": "uint8"
            },
            {
              "internalType": "uint256",
              "name": "submissionTime",
              "type": "uint256"
            },
            {
              "internalType": "uint256",
              "name": "lastUpdateTime",
              "type": "uint256"
            },
            {
              "internalType": "address",
              "name": "submitter",
              "type": "address"
            },
            {
              "internalType": "string",
              "name": "rejectionReason",
              "type": "string"
            }
          ],
          "internalType": "struct CVRegistry.CVRecord",
          "name": "",
          "type": "tuple"
        }
      ],
      "stateMutability": "view",
      "type": "function"
    },
    {
      "inputs": [
        {
          "internalType": "address",
          "name": "_user",
          "type": "address"
        }
      ],
      "name": "getCVStatus",
      "outputs": [
        {
          "internalType": "enum CVRegistry.CVStatus",
          "name": "",
          "type": "uint8"
        }
      ],
      "stateMutability": "view",
      "type": "function"
    },
    {
      "inputs": [
        {
          "internalType": "uint256",
          "name": "",
          "type": "uint256"
        },
        {
          "internalType": "uint256",
          "name": "_limit",
          "type": "uint256"
        }
      ],
      "name": "getPendingCVs",
      "outputs": [
        {
          "internalType": "address[]",
          "name": "users",
          "type": "address[]"
        },
        {
          "components": [
            {
              "internalType": "string",
              "name": "ipfsHash",
              "type": "string"
            },
            {
              "internalType": "string",
              "name": "metadataHash",
              "type": "string"
            },
            {
              "internalType": "enum CVRegistry.CVStatus",
              "name": "status",
              "type": "uint8"
            },
            {
              "internalType": "uint256",
              "name": "submissionTime",
              "type": "uint256"
            },
            {
              "internalType": "uint256",
              "name": "lastUpdateTime",
              "type": "uint256"
            },
            {
              "internalType": "address",
              "name": "submitter",
              "type": "address"
            },
            {
              "internalType": "string",
              "name": "rejectionReason",
              "type": "string"
            }
          ],
          "internalType": "struct CVRegistry.CVRecord[]",
          "name": "records",
          "type": "tuple[]"
        }
      ],
      "stateMutability": "view",
      "type": "function"
    },
    {
      "inputs": [],
      "name": "getStats",
      "outputs": [
        {
          "internalType": "uint256",
          "name": "",
          "type": "uint256"
        },
        {
          "internalType": "uint256",
          "name": "",
          "type": "uint256"
        },
        {
          "internalType": "uint256",
          "name": "",
          "type": "uint256"
        }
      ],
      "stateMutability": "view",
      "type": "function"
    },
    {
      "inputs": [
        {
          "internalType": "address",
          "name": "_address",
          "type": "address"
        }
      ],
      "name": "isApprover",
      "outputs": [
        {
          "internalType": "bool",
          "name": "",
          "type": "bool"
        }
      ],
      "stateMutability": "view",
      "type": "function"
    },
    {
      "inputs": [],
      "name": "owner",
      "outputs": [
        {
          "internalType": "address",
          "name": "",
          "type": "address"
        }
      ],
      "stateMutability": "view",
      "type": "function"
    },
    {
      "inputs": [
        {
          "internalType": "address",
          "name": "_user",
          "type": "address"
        },
        {
          "internalType": "string",
          "name": "_reason",
          "type": "string"
        }
      ],
      "name": "rejectCV",
      "outputs": [],
      "stateMutability": "nonpayable",
      "type": "function"
    },
    {
      "inputs": [
        {
          "internalType": "address",
          "name": "_approver",
          "type": "address"
        }
      ],
      "name": "removeApprover",
      "outputs": [],
      "stateMutability": "nonpayable",
      "type": "function"
    },
    {
      "inputs": [],
      "name": "renounceOwnership",
      "outputs": [],
      "stateMutability": "nonpayable",
      "type": "function"
    },
    {
      "inputs": [
        {
          "internalType": "string",
          "name": "_ipfsHash",
          "type": "string"
        },
        {
          "internalType": "string",
          "name": "_metadataHash",
          "type": "string"
        }
      ],
      "name": "submitCV",
      "outputs": [],
      "stateMutability": "nonpayable",
      "type": "function"
    },
    {
      "inputs": [],
      "name": "totalApprovals",
      "outputs": [
        {
          "internalType": "uint256",
          "name": "",
          "type": "uint256"
        }
      ],
      "stateMutability": "view",
      "type": "function"
    },
    {
      "inputs": [],
      "name": "totalRejections",
      "outputs": [
        {
          "internalType": "uint256",
          "name": "",
          "type": "uint256"
        }
      ],
      "stateMutability": "view",
      "type": "function"
    },
    {
      "inputs": [],
      "name": "totalSubmissions",
      "outputs": [
        {
          "internalType": "uint256",
          "name": "",
          "type": "uint256"
        }
      ],
      "stateMutability": "view",
      "type": "function"
    },
    {
      "inputs": [
        {
          "internalType": "address",
          "name": "newOwner",
          "type": "address"
        }
      ],
      "name": "transferOwnership",
      "outputs": [],
      "stateMutability": "nonpayable",
      "type": "function"
    },
    {
      "inputs": [
        {
          "internalType": "string",
          "name": "_ipfsHash",
          "type": "string"
        },
        {
          "internalType": "string",
          "name": "_metadataHash",
          "type": "string"
        }
      ],
      "name": "updateCV",
      "outputs": [],
      "stateMutability": "nonpayable",
      "type": "function"
    }
  ],
  "bytecode": "0x608060405234801561001057600080fd5b50338061003757604051631e4fbdf760e01b81526000600482015260240160405180910390fd5b61004081610065565b506001808055336000908152600360205260409020805460ff191690911790556100b5565b600080546001600160a01b038381166001600160a01b0319831681178455604051919092169283917f8be0079c531659141344cd1fd0a4f28419497f9722a3daafe3b4186f6b6457e09190a35050565b611b71806100c46000396000f3fe608060405234801561001057600080fd5b50600436106101215760003560e01c80638da5cb5b116100ad578063c59d484711610071578063c59d484714610264578063d2d64b3814610288578063d4839855146102c5578063dcb1a412146102d8578063f2fde38b146102f957600080fd5b80638da5cb5b146101fa578063a395401614610215578063b0a93f921461021e578063b500bb6e1461023e578063b646c1941461025157600080fd5b80636c4a67eb116100f45780636c4a67eb146101b05780636cf4c88f146101b95780636d218e48146101cc578063715018a6146101df5780638617763e146101e757600080fd5b80630a1443911461012657806311ed8b841461015e5780632fce9199146101735780634bee09d014610199575b600080fd5b61014961013436600461148c565b60036020526000908152604090205460ff1681565b60405190151581526020015b60405180910390f35b61017161016c36600461148c565b61030c565b005b61018661018136600461148c565b610459565b6040516101559796959493929190611536565b6101a260075481565b604051908152602001610155565b6101a260065481565b6101716101c736600461148c565b61063d565b6101496101da36600461148c565b61074a565b610171610784565b6101716101f536600461164a565b610798565b6000546040516001600160a01b039091168152602001610155565b6101a260055481565b61023161022c36600461148c565b610ae8565b6040516101559190611738565b61017161024c36600461164a565b610d2c565b61017161025f36600461148c565b610fea565b60055460065460075460408051938452602084019290925290820152606001610155565b6102b861029636600461148c565b6001600160a01b03166000908152600260208190526040909120015460ff1690565b604051610155919061174b565b6101716102d3366004611759565b6110e5565b6102eb6102e636600461179d565b61125d565b6040516101559291906117bf565b61017161030736600461148c565b611347565b3360009081526003602052604090205460ff168061033457506000546001600160a01b031633145b6103595760405162461bcd60e51b815260040161035090611860565b60405180910390fd5b60016001600160a01b0382166000908152600260208190526040909120015460ff16600381111561038c5761038c6114fe565b146103d35760405162461bcd60e51b815260206004820152601760248201527610d5881b9bdd081c195b991a5b99c8185c1c1c9bdd985b604a1b6044820152606401610350565b6001600160a01b03811660009081526002602081905260408220808201805460ff191690921790915542600490910155600680549161041183611897565b909155505060405142815233906001600160a01b038316907f3b5cb12055c3261140708235ed760e67cf74b581fc6d0bbe4827b41de5d2062e9060200160405180910390a350565b600260205260009081526040902080548190610474906118be565b80601f01602080910402602001604051908101604052809291908181526020018280546104a0906118be565b80156104ed5780601f106104c2576101008083540402835291602001916104ed565b820191906000526020600020905b8154815290600101906020018083116104d057829003601f168201915b505050505090806001018054610502906118be565b80601f016020809104026020016040519081016040528092919081815260200182805461052e906118be565b801561057b5780601f106105505761010080835404028352916020019161057b565b820191906000526020600020905b81548152906001019060200180831161055e57829003601f168201915b5050506002840154600385015460048601546005870154600688018054979860ff909516979396509194506001600160a01b031692916105ba906118be565b80601f01602080910402602001604051908101604052809291908181526020018280546105e6906118be565b80156106335780601f1061060857610100808354040283529160200191610633565b820191906000526020600020905b81548152906001019060200180831161061657829003601f168201915b5050505050905087565b610645611385565b6001600160a01b03811660009081526003602052604090205460ff1661069f5760405162461bcd60e51b815260206004820152600f60248201526e2737ba1030b71030b8383937bb32b960891b6044820152606401610350565b6000546001600160a01b03166001600160a01b0316816001600160a01b0316036107015760405162461bcd60e51b815260206004820152601360248201527221b0b73737ba103932b6b7bb329037bbb732b960691b6044820152606401610350565b6001600160a01b038116600081815260036020526040808220805460ff19169055517fc6e35658c76ecdde40a54f31a91fb7c8615e9893cc0885584b27bb3433270d469190a250565b6001600160a01b03811660009081526003602052604081205460ff168061077e57506000546001600160a01b038381169116145b92915050565b61078c611385565b61079660006113b2565b565b8160008151116107e15760405162461bcd60e51b8152602060048201526014602482015273486173682063616e6e6f7420626520656d70747960601b6044820152606401610350565b6004816040516107f191906118f8565b9081526040519081900360200190205460ff16156108455760405162461bcd60e51b815260206004820152601160248201527012185cda08185b1c9958591e481d5cd959607a1b6044820152606401610350565b61084d611402565b3360009081526002602081905260408220015460ff166003811115610874576108746114fe565b14806108a757506003336000908152600260208190526040909120015460ff1660038111156108a5576108a56114fe565b145b6108f35760405162461bcd60e51b815260206004820181905260248201527f435620616c7265616479207375626d6974746564206f7220617070726f7665646044820152606401610350565b6003336000908152600260208190526040909120015460ff16600381111561091d5761091d6114fe565b036109615733600090815260026020526040808220905160049161094091611914565b908152604051908190036020019020805491151560ff199092169190911790555b6040805160e081018252848152602081018490529081016001815242602080830182905260408084019290925233606084018190528251808301845260008082526080909501528352600290529020815181906109be90826119d8565b50602082015160018201906109d390826119d8565b50604082015160028201805460ff191660018360038111156109f7576109f76114fe565b0217905550606082015160038201556080820151600482015560a08201516005820180546001600160a01b0319166001600160a01b0390921691909117905560c08201516006820190610a4a90826119d8565b509050506001600484604051610a6091906118f8565b908152604051908190036020019020805491151560ff1990921691909117905560058054906000610a9083611897565b9190505550336001600160a01b03167fdf54dce6c9b805af0a621c5bfa9b49f3977719aeca3165967529ae605af737ed848442604051610ad293929190611a98565b60405180910390a2610ae360018055565b505050565b610af061142c565b6001600160a01b03821660009081526002602052604090819020815160e08101909252805482908290610b22906118be565b80601f0160208091040260200160405190810160405280929190818152602001828054610b4e906118be565b8015610b9b5780601f10610b7057610100808354040283529160200191610b9b565b820191906000526020600020905b815481529060010190602001808311610b7e57829003601f168201915b50505050508152602001600182018054610bb4906118be565b80601f0160208091040260200160405190810160405280929190818152602001828054610be0906118be565b8015610c2d5780601f10610c0257610100808354040283529160200191610c2d565b820191906000526020600020905b815481529060010190602001808311610c1057829003601f168201915b5050509183525050600282015460209091019060ff166003811115610c5457610c546114fe565b6003811115610c6557610c656114fe565b8152600382015460208201526004820154604082015260058201546001600160a01b03166060820152600682018054608090920191610ca3906118be565b80601f0160208091040260200160405190810160405280929190818152602001828054610ccf906118be565b8015610d1c5780601f10610cf157610100808354040283529160200191610d1c565b820191906000526020600020905b815481529060010190602001808311610cff57829003601f168201915b5050505050815250509050919050565b816000815111610d755760405162461bcd60e51b8152602060048201526014602482015273486173682063616e6e6f7420626520656d70747960601b6044820152606401610350565b600481604051610d8591906118f8565b9081526040519081900360200190205460ff1615610dd95760405162461bcd60e51b815260206004820152601160248201527012185cda08185b1c9958591e481d5cd959607a1b6044820152606401610350565b610de1611402565b6001336000908152600260208190526040909120015460ff166003811115610e0b57610e0b6114fe565b14610e585760405162461bcd60e51b815260206004820152601b60248201527f43616e206f6e6c79207570646174652070656e64696e672043567300000000006044820152606401610350565b3360009081526002602052604081208054610e72906118be565b80601f0160208091040260200160405190810160405280929190818152602001828054610e9e906118be565b8015610eeb5780601f10610ec057610100808354040283529160200191610eeb565b820191906000526020600020905b815481529060010190602001808311610ece57829003601f168201915b505050505090506000600482604051610f0491906118f8565b9081526040805160209281900383019020805460ff191693151593909317909255336000908152600290915220610f3b85826119d8565b50336000908152600260205260409020600101610f5884826119d8565b50336000908152600260205260409081902042600491820155905160019190610f829087906118f8565b908152604051908190036020018120805492151560ff199093169290921790915533907f4033a6ab9f2d6676c7a4ffabf897c8129ed71a2fe527c67d9a2790b9599ae4bc90610fd8908490889088904290611ace565b60405180910390a250610ae360018055565b610ff2611385565b6001600160a01b03811661103a5760405162461bcd60e51b815260206004820152600f60248201526e496e76616c6964206164647265737360881b6044820152606401610350565b6001600160a01b03811660009081526003602052604090205460ff16156110995760405162461bcd60e51b815260206004820152601360248201527220b63932b0b23c9030b71030b8383937bb32b960691b6044820152606401610350565b6001600160a01b038116600081815260036020526040808220805460ff19166001179055517f835bddf1ceee4956e4329af9edf018523c1191238187a597453f6020bcadb0429190a250565b3360009081526003602052604090205460ff168061110d57506000546001600160a01b031633145b6111295760405162461bcd60e51b815260040161035090611860565b60016001600160a01b0383166000908152600260208190526040909120015460ff16600381111561115c5761115c6114fe565b146111a35760405162461bcd60e51b815260206004820152601760248201527610d5881b9bdd081c195b991a5b99c8185c1c1c9bdd985b604a1b6044820152606401610350565b6001600160a01b0382166000908152600260208190526040909120908101805460ff191660031790556006016111d982826119d8565b506001600160a01b038216600090815260026020526040812042600490910155600780549161120783611897565b9190505550336001600160a01b0316826001600160a01b03167f7c20a7dab49132defd2c4340cfd05c46f5fab169bfbc8de86cec3dda112f29088342604051611251929190611b19565b60405180910390a35050565b33600090815260036020526040902054606090819060ff168061128a57506000546001600160a01b031633145b6112a65760405162461bcd60e51b815260040161035090611860565b8267ffffffffffffffff8111156112bf576112bf6115a7565b6040519080825280602002602001820160405280156112e8578160200160208202803683370190505b5091508267ffffffffffffffff811115611304576113046115a7565b60405190808252806020026020018201604052801561133d57816020015b61132a61142c565b8152602001906001900390816113225790505b5090509250929050565b61134f611385565b6001600160a01b03811661137957604051631e4fbdf760e01b815260006004820152602401610350565b611382816113b2565b50565b6000546001600160a01b031633146107965760405163118cdaa760e01b8152336004820152602401610350565b600080546001600160a01b038381166001600160a01b0319831681178455604051919092169283917f8be0079c531659141344cd1fd0a4f28419497f9722a3daafe3b4186f6b6457e09190a35050565b60026001540361142557604051633ee5aeb560e01b815260040160405180910390fd5b6002600155565b6040805160e0810182526060808252602082015290810160008152602001600081526020016000815260200160006001600160a01b03168152602001606081525090565b80356001600160a01b038116811461148757600080fd5b919050565b60006020828403121561149e57600080fd5b6114a782611470565b9392505050565b60005b838110156114c95781810151838201526020016114b1565b50506000910152565b600081518084526114ea8160208601602086016114ae565b601f01601f19169290920160200192915050565b634e487b7160e01b600052602160045260246000fd5b6004811061153257634e487b7160e01b600052602160045260246000fd5b9052565b60e08152600061154960e083018a6114d2565b828103602084015261155b818a6114d2565b905061156a6040840189611514565b60608301879052608083018690526001600160a01b03851660a084015282810360c084015261159981856114d2565b9a9950505050505050505050565b634e487b7160e01b600052604160045260246000fd5b600082601f8301126115ce57600080fd5b813567ffffffffffffffff808211156115e9576115e96115a7565b604051601f8301601f19908116603f01168101908282118183101715611611576116116115a7565b8160405283815286602085880101111561162a57600080fd5b836020870160208301376000602085830101528094505050505092915050565b6000806040838503121561165d57600080fd5b823567ffffffffffffffff8082111561167557600080fd5b611681868387016115bd565b9350602085013591508082111561169757600080fd5b506116a4858286016115bd565b9150509250929050565b6000815160e084526116c360e08501826114d2565b9050602083015184820360208601526116dc82826114d2565b91505060408301516116f16040860182611514565b50606083015160608501526080830151608085015260018060a01b0360a08401511660a085015260c083015184820360c086015261172f82826114d2565b95945050505050565b6020815260006114a760208301846116ae565b6020810161077e8284611514565b6000806040838503121561176c57600080fd5b61177583611470565b9150602083013567ffffffffffffffff81111561179157600080fd5b6116a4858286016115bd565b600080604083850312156117b057600080fd5b50508035926020909101359150565b604080825283519082018190526000906020906060840190828701845b828110156118015781516001600160a01b0316845292840192908401906001016117dc565b50505083810382850152845180825282820190600581901b8301840187850160005b8381101561185157601f1986840301855261183f8383516116ae565b94870194925090860190600101611823565b50909998505050505050505050565b60208082526019908201527f4e6f7420617574686f72697a656420746f20617070726f766500000000000000604082015260600190565b6000600182016118b757634e487b7160e01b600052601160045260246000fd5b5060010190565b600181811c908216806118d257607f821691505b6020821081036118f257634e487b7160e01b600052602260045260246000fd5b50919050565b6000825161190a8184602087016114ae565b9190910192915050565b6000808354611922816118be565b6001828116801561193a576001811461194f5761197e565b60ff198416875282151583028701945061197e565b8760005260208060002060005b858110156119755781548a82015290840190820161195c565b50505082870194505b50929695505050505050565b601f821115610ae357600081815260208120601f850160051c810160208610156119b15750805b601f850160051c820191505b818110156119d0578281556001016119bd565b505050505050565b815167ffffffffffffffff8111156119f2576119f26115a7565b611a0681611a0084546118be565b8461198a565b602080601f831160018114611a3b5760008415611a235750858301515b600019600386901b1c1916600185901b1785556119d0565b600085815260208120601f198616915b82811015611a6a57888601518255948401946001909101908401611a4b565b5085821015611a885787850151600019600388901b60f8161c191681555b5050505050600190811b01905550565b606081526000611aab60608301866114d2565b8281036020840152611abd81866114d2565b915050826040830152949350505050565b608081526000611ae160808301876114d2565b8281036020840152611af381876114d2565b90508281036040840152611b0781866114d2565b91505082606083015295945050505050565b604081526000611b2c60408301856114d2565b9050826020830152939250505056fea26469706673582212202ed92908626ab7c07d5eeab185f6a3e5b68e3988d5ccf8dca92c189647cb1b7964736f6c63430008140033",
  "linkReferences": {},
  "deployedLinkReferences": {}
}