{
  "_format": "hh-sol-artifact-1",
  "contractName": "CVRegistry",
  "sourceName": "contracts/CVRegistry.sol",
  "abi": [
    {
      "inputs": [],
      "stateMutability": "nonpayable",
      "type": "constructor"
    },
    {
      "inputs": [
        {
          "internalType": "address",
          "name": "owner",
          "type": "address"
        }
      ],
      "name": "OwnableInvalidOwner",
      "type": "error"
    },
    {
      "inputs": [
        {
          "internalType": "address",
          "name": "account",
          "type": "address"
        }
      ],
      "name": "OwnableUnauthorizedAccount",
      "type": "error"
    },
    {
      "inputs": [],
      "name": "ReentrancyGuardReentrantCall",
      "type": "error"
    },
    {
      "anonymous": false,
      "inputs": [
        {
          "indexed": true,
          "internalType": "address",
          "name": "approver",
          "type": "address"
        }
      ],
      "name": "ApproverAdded",
      "type": "event"
    },
    {
      "anonymous": false,
      "inputs": [
        {
          "indexed": true,
          "internalType": "address",
          "name": "approver",
          "type": "address"
        },
        {
          "indexed": false,
          "internalType": "uint256",
          "name": "executeAfter",
          "type": "uint256"
        }
      ],
      "name": "ApproverRemovalInitiated",
      "type": "event"
    },
    {
      "anonymous": false,
      "inputs": [
        {
          "indexed": true,
          "internalType": "address",
          "name": "approver",
          "type": "address"
        }
      ],
      "name": "ApproverRemoved",
      "type": "event"
    },
    {
      "anonymous": false,
      "inputs": [
        {
          "indexed": true,
          "internalType": "address",
          "name": "user",
          "type": "address"
        },
        {
          "indexed": true,
          "internalType": "address",
          "name": "approver",
          "type": "address"
        },
        {
          "indexed": false,
          "internalType": "uint256",
          "name": "timestamp",
          "type": "uint256"
        }
      ],
      "name": "CVApproved",
      "type": "event"
    },
    {
      "anonymous": false,
      "inputs": [
        {
          "indexed": true,
          "internalType": "address",
          "name": "user",
          "type": "address"
        },
        {
          "indexed": true,
          "internalType": "address",
          "name": "rejector",
          "type": "address"
        },
        {
          "indexed": false,
          "internalType": "string",
          "name": "reason",
          "type": "string"
        },
        {
          "indexed": false,
          "internalType": "uint256",
          "name": "timestamp",
          "type": "uint256"
        }
      ],
      "name": "CVRejected",
      "type": "event"
    },
    {
      "anonymous": false,
      "inputs": [
        {
          "indexed": true,
          "internalType": "address",
          "name": "user",
          "type": "address"
        },
        {
          "indexed": false,
          "internalType": "string",
          "name": "ipfsHash",
          "type": "string"
        },
        {
          "indexed": false,
          "internalType": "string",
          "name": "metadataHash",
          "type": "string"
        },
        {
          "indexed": false,
          "internalType": "uint256",
          "name": "timestamp",
          "type": "uint256"
        }
      ],
      "name": "CVSubmitted",
      "type": "event"
    },
    {
      "anonymous": false,
      "inputs": [
        {
          "indexed": true,
          "internalType": "address",
          "name": "user",
          "type": "address"
        },
        {
          "indexed": false,
          "internalType": "string",
          "name": "oldIpfsHash",
          "type": "string"
        },
        {
          "indexed": false,
          "internalType": "string",
          "name": "newIpfsHash",
          "type": "string"
        },
        {
          "indexed": false,
          "internalType": "string",
          "name": "newMetadataHash",
          "type": "string"
        },
        {
          "indexed": false,
          "internalType": "uint256",
          "name": "timestamp",
          "type": "uint256"
        }
      ],
      "name": "CVUpdated",
      "type": "event"
    },
    {
      "anonymous": false,
      "inputs": [
        {
          "indexed": true,
          "internalType": "address",
          "name": "previousOwner",
          "type": "address"
        },
        {
          "indexed": true,
          "internalType": "address",
          "name": "newOwner",
          "type": "address"
        }
      ],
      "name": "OwnershipTransferred",
      "type": "event"
    },
    {
      "inputs": [
        {
          "internalType": "address",
          "name": "_approver",
          "type": "address"
        }
      ],
      "name": "addApprover",
      "outputs": [],
      "stateMutability": "nonpayable",
      "type": "function"
    },
    {
      "inputs": [
        {
          "internalType": "address",
          "name": "_user",
          "type": "address"
        }
      ],
      "name": "approveCV",
      "outputs": [],
      "stateMutability": "nonpayable",
      "type": "function"
    },
    {
      "inputs": [
        {
          "internalType": "address",
          "name": "",
          "type": "address"
        }
      ],
      "name": "approvers",
      "outputs": [
        {
          "internalType": "bool",
          "name": "",
          "type": "bool"
        }
      ],
      "stateMutability": "view",
      "type": "function"
    },
    {
      "inputs": [
        {
          "internalType": "address",
          "name": "_approver",
          "type": "address"
        }
      ],
      "name": "cancelApproverRemoval",
      "outputs": [],
      "stateMutability": "nonpayable",
      "type": "function"
    },
    {
      "inputs": [
        {
          "internalType": "address",
          "name": "",
          "type": "address"
        }
      ],
      "name": "cvRecords",
      "outputs": [
        {
          "internalType": "string",
          "name": "ipfsHash",
          "type": "string"
        },
        {
          "internalType": "string",
          "name": "metadataHash",
          "type": "string"
        },
        {
          "internalType": "enum CVRegistry.CVStatus",
          "name": "status",
          "type": "uint8"
        },
        {
          "internalType": "uint256",
          "name": "submissionTime",
          "type": "uint256"
        },
        {
          "internalType": "uint256",
          "name": "lastUpdateTime",
          "type": "uint256"
        },
        {
          "internalType": "address",
          "name": "submitter",
          "type": "address"
        },
        {
          "internalType": "string",
          "name": "rejectionReason",
          "type": "string"
        }
      ],
      "stateMutability": "view",
      "type": "function"
    },
    {
      "inputs": [
        {
          "internalType": "address",
          "name": "_approver",
          "type": "address"
        }
      ],
      "name": "executeApproverRemoval",
      "outputs": [],
      "stateMutability": "nonpayable",
      "type": "function"
    },
    {
      "inputs": [
        {
          "internalType": "address",
          "name": "_user",
          "type": "address"
        }
      ],
      "name": "getCVRecord",
      "outputs": [
        {
          "components": [
            {
              "internalType": "string",
              "name": "ipfsHash",
              "type": "string"
            },
            {
              "internalType": "string",
              "name": "metadataHash",
              "type": "string"
            },
            {
              "internalType": "enum CVRegistry.CVStatus",
              "name": "status",
              "type": "uint8"
            },
            {
              "internalType": "uint256",
              "name": "submissionTime",
              "type": "uint256"
            },
            {
              "internalType": "uint256",
              "name": "lastUpdateTime",
              "type": "uint256"
            },
            {
              "internalType": "address",
              "name": "submitter",
              "type": "address"
            },
            {
              "internalType": "string",
              "name": "rejectionReason",
              "type": "string"
            }
          ],
          "internalType": "struct CVRegistry.CVRecord",
          "name": "",
          "type": "tuple"
        }
      ],
      "stateMutability": "view",
      "type": "function"
    },
    {
      "inputs": [
        {
          "internalType": "address",
          "name": "_user",
          "type": "address"
        }
      ],
      "name": "getCVStatus",
      "outputs": [
        {
          "internalType": "enum CVRegistry.CVStatus",
          "name": "",
          "type": "uint8"
        }
      ],
      "stateMutability": "view",
      "type": "function"
    },
    {
      "inputs": [
        {
          "internalType": "uint256",
          "name": "_offset",
          "type": "uint256"
        },
        {
          "internalType": "uint256",
          "name": "_limit",
          "type": "uint256"
        }
      ],
      "name": "getPendingCVs",
      "outputs": [
        {
          "internalType": "address[]",
          "name": "users",
          "type": "address[]"
        },
        {
          "components": [
            {
              "internalType": "string",
              "name": "ipfsHash",
              "type": "string"
            },
            {
              "internalType": "string",
              "name": "metadataHash",
              "type": "string"
            },
            {
              "internalType": "enum CVRegistry.CVStatus",
              "name": "status",
              "type": "uint8"
            },
            {
              "internalType": "uint256",
              "name": "submissionTime",
              "type": "uint256"
            },
            {
              "internalType": "uint256",
              "name": "lastUpdateTime",
              "type": "uint256"
            },
            {
              "internalType": "address",
              "name": "submitter",
              "type": "address"
            },
            {
              "internalType": "string",
              "name": "rejectionReason",
              "type": "string"
            }
          ],
          "internalType": "struct CVRegistry.CVRecord[]",
          "name": "records",
          "type": "tuple[]"
        }
      ],
      "stateMutability": "view",
      "type": "function"
    },
    {
      "inputs": [],
      "name": "getPendingCount",
      "outputs": [
        {
          "internalType": "uint256",
          "name": "",
          "type": "uint256"
        }
      ],
      "stateMutability": "view",
      "type": "function"
    },
    {
      "inputs": [],
      "name": "getStats",
      "outputs": [
        {
          "internalType": "uint256",
          "name": "",
          "type": "uint256"
        },
        {
          "internalType": "uint256",
          "name": "",
          "type": "uint256"
        },
        {
          "internalType": "uint256",
          "name": "",
          "type": "uint256"
        }
      ],
      "stateMutability": "view",
      "type": "function"
    },
    {
      "inputs": [
        {
          "internalType": "address",
          "name": "_approver",
          "type": "address"
        }
      ],
      "name": "initiateApproverRemoval",
      "outputs": [],
      "stateMutability": "nonpayable",
      "type": "function"
    },
    {
      "inputs": [
        {
          "internalType": "address",
          "name": "_address",
          "type": "address"
        }
      ],
      "name": "isApprover",
      "outputs": [
        {
          "internalType": "bool",
          "name": "",
          "type": "bool"
        }
      ],
      "stateMutability": "view",
      "type": "function"
    },
    {
      "inputs": [],
      "name": "owner",
      "outputs": [
        {
          "internalType": "address",
          "name": "",
          "type": "address"
        }
      ],
      "stateMutability": "view",
      "type": "function"
    },
    {
      "inputs": [
        {
          "internalType": "address",
          "name": "_user",
          "type": "address"
        },
        {
          "internalType": "string",
          "name": "_reason",
          "type": "string"
        }
      ],
      "name": "rejectCV",
      "outputs": [],
      "stateMutability": "nonpayable",
      "type": "function"
    },
    {
      "inputs": [],
      "name": "renounceOwnership",
      "outputs": [],
      "stateMutability": "pure",
      "type": "function"
    },
    {
      "inputs": [
        {
          "internalType": "string",
          "name": "_ipfsHash",
          "type": "string"
        },
        {
          "internalType": "string",
          "name": "_metadataHash",
          "type": "string"
        }
      ],
      "name": "submitCV",
      "outputs": [],
      "stateMutability": "nonpayable",
      "type": "function"
    },
    {
      "inputs": [],
      "name": "totalApprovals",
      "outputs": [
        {
          "internalType": "uint256",
          "name": "",
          "type": "uint256"
        }
      ],
      "stateMutability": "view",
      "type": "function"
    },
    {
      "inputs": [],
      "name": "totalRejections",
      "outputs": [
        {
          "internalType": "uint256",
          "name": "",
          "type": "uint256"
        }
      ],
      "stateMutability": "view",
      "type": "function"
    },
    {
      "inputs": [],
      "name": "totalSubmissions",
      "outputs": [
        {
          "internalType": "uint256",
          "name": "",
          "type": "uint256"
        }
      ],
      "stateMutability": "view",
      "type": "function"
    },
    {
      "inputs": [
        {
          "internalType": "address",
          "name": "newOwner",
          "type": "address"
        }
      ],
      "name": "transferOwnership",
      "outputs": [],
      "stateMutability": "nonpayable",
      "type": "function"
    },
    {
      "inputs": [
        {
          "internalType": "string",
          "name": "_ipfsHash",
          "type": "string"
        },
        {
          "internalType": "string",
          "name": "_metadataHash",
          "type": "string"
        }
      ],
      "name": "updateCV",
      "outputs": [],
      "stateMutability": "nonpayable",
      "type": "function"
    }
  ],
  "bytecode": "0x608060405234801561001057600080fd5b50338061003757604051631e4fbdf760e01b81526000600482015260240160405180910390fd5b61004081610065565b506001808055336000908152600360205260409020805460ff191690911790556100b5565b600080546001600160a01b038381166001600160a01b0319831681178455604051919092169283917f8be0079c531659141344cd1fd0a4f28419497f9722a3daafe3b4186f6b6457e09190a35050565b6125e180620000c56000396000f3fe608060405234801561001057600080fd5b50600436106101425760003560e01c8063a3954016116100b8578063ce513df31161007c578063ce513df3146102bc578063d2d64b38146102cf578063d48398551461030c578063d795ede11461031f578063dcb1a41214610327578063f2fde38b1461034857600080fd5b8063a395401614610249578063b0a93f9214610252578063b500bb6e14610272578063b646c19414610285578063c59d48471461029857600080fd5b80636d218e481161010a5780636d218e48146101da578063715018a6146101ed5780638617763e146101f5578063873e44c9146102085780638da5cb5b1461021b57806394a3e5f21461023657600080fd5b80630a1443911461014757806311ed8b841461017f5780632fce9199146101945780634bee09d0146101ba5780636c4a67eb146101d1575b600080fd5b61016a610155366004611ea8565b60036020526000908152604090205460ff1681565b60405190151581526020015b60405180910390f35b61019261018d366004611ea8565b61035b565b005b6101a76101a2366004611ea8565b6104f8565b6040516101769796959493929190611f4b565b6101c3600a5481565b604051908152602001610176565b6101c360095481565b61016a6101e8366004611ea8565b6106dc565b610192610716565b61019261020336600461205f565b61075e565b610192610216366004611ea8565b610b77565b6000546040516001600160a01b039091168152602001610176565b610192610244366004611ea8565b610d07565b6101c360085481565b610265610260366004611ea8565b610e22565b604051610176919061214d565b61019261028036600461205f565b611066565b610192610293366004611ea8565b61138e565b600854600954600a5460408051938452602084019290925290820152606001610176565b6101926102ca366004611ea8565b611489565b6102ff6102dd366004611ea8565b6001600160a01b03166000908152600260208190526040909120015460ff1690565b6040516101769190612160565b61019261031a36600461216e565b611507565b6005546101c3565b61033a6103353660046121b2565b6116c7565b6040516101769291906121d4565b610192610356366004611ea8565b611b58565b3360009081526003602052604090205460ff168061038357506000546001600160a01b031633145b6103a85760405162461bcd60e51b815260040161039f90612275565b60405180910390fd5b336001600160a01b038216036103f85760405162461bcd60e51b815260206004820152601560248201527421b0b73737ba1030b8383937bb329037bbb71021ab60591b604482015260640161039f565b60016001600160a01b0382166000908152600260208190526040909120015460ff16600381111561042b5761042b611f13565b146104725760405162461bcd60e51b815260206004820152601760248201527610d5881b9bdd081c195b991a5b99c8185c1c1c9bdd985b604a1b604482015260640161039f565b6001600160a01b0381166000908152600260208190526040909120808201805460ff1916909217909155426004909101556104ac81611b96565b60098054600101905560405142815233906001600160a01b038316907f3b5cb12055c3261140708235ed760e67cf74b581fc6d0bbe4827b41de5d2062e9060200160405180910390a350565b600260205260009081526040902080548190610513906122ac565b80601f016020809104026020016040519081016040528092919081815260200182805461053f906122ac565b801561058c5780601f106105615761010080835404028352916020019161058c565b820191906000526020600020905b81548152906001019060200180831161056f57829003601f168201915b5050505050908060010180546105a1906122ac565b80601f01602080910402602001604051908101604052809291908181526020018280546105cd906122ac565b801561061a5780601f106105ef5761010080835404028352916020019161061a565b820191906000526020600020905b8154815290600101906020018083116105fd57829003601f168201915b5050506002840154600385015460048601546005870154600688018054979860ff909516979396509194506001600160a01b03169291610659906122ac565b80601f0160208091040260200160405190810160405280929190818152602001828054610685906122ac565b80156106d25780601f106106a7576101008083540402835291602001916106d2565b820191906000526020600020905b8154815290600101906020018083116106b557829003601f168201915b5050505050905087565b6001600160a01b03811660009081526003602052604081205460ff168061071057506000546001600160a01b038381169116145b92915050565b60405162461bcd60e51b815260206004820152601d60248201527f4f776e6572736869702063616e6e6f742062652072656e6f756e636564000000604482015260640161039f565b8160008151116107a75760405162461bcd60e51b8152602060048201526014602482015273486173682063616e6e6f7420626520656d70747960601b604482015260640161039f565b336000908152600460205260409081902090516107c59083906122e6565b9081526040519081900360200190205460ff16156108205760405162461bcd60e51b81526020600482015260186024820152774861736820616c7265616479207573656420627920796f7560401b604482015260640161039f565b8160008151116108725760405162461bcd60e51b815260206004820152601d60248201527f4d6574616461746120686173682063616e6e6f7420626520656d707479000000604482015260640161039f565b61087a611cca565b336108c75760405162461bcd60e51b815260206004820152601a60248201527f5a65726f20616464726573732063616e6e6f74207375626d6974000000000000604482015260640161039f565b3360009081526002602081905260408220015460ff1660038111156108ee576108ee611f13565b148061092157506003336000908152600260208190526040909120015460ff16600381111561091f5761091f611f13565b145b61096d5760405162461bcd60e51b815260206004820181905260248201527f435620616c7265616479207375626d6974746564206f7220617070726f766564604482015260640161039f565b6003336000908152600260208190526040909120015460ff16600381111561099757610997611f13565b036109eb57336000908152600460209081526040808320600290925280832090516109c29190612302565b908152604051908190036020019020805491151560ff199092169190911790556109eb33611b96565b6040805160e08101825285815260208101859052908101600181524260208083018290526040808401929092523360608401819052825180830184526000808252608090950152835260029052902081518190610a4890826123c7565b5060208201516001820190610a5d90826123c7565b50604082015160028201805460ff19166001836003811115610a8157610a81611f13565b0217905550606082015160038201556080820151600482015560a08201516005820180546001600160a01b0319166001600160a01b0390921691909117905560c08201516006820190610ad490826123c7565b50503360009081526004602052604090819020905160019250610af89087906122e6565b908152604051908190036020019020805491151560ff19909216919091179055610b2133611cf4565b60088054600101905560405133907fdf54dce6c9b805af0a621c5bfa9b49f3977719aeca3165967529ae605af737ed90610b6090879087904290612487565b60405180910390a2610b7160018055565b50505050565b610b7f611db6565b6001600160a01b03811660009081526003602052604090205460ff16610bd95760405162461bcd60e51b815260206004820152600f60248201526e2737ba1030b71030b8383937bb32b960891b604482015260640161039f565b6000546001600160a01b03166001600160a01b0316816001600160a01b031603610c3b5760405162461bcd60e51b815260206004820152601360248201527221b0b73737ba103932b6b7bb329037bbb732b960691b604482015260640161039f565b6001600160a01b03811660009081526007602052604090205415610ca15760405162461bcd60e51b815260206004820152601960248201527f52656d6f76616c20616c726561647920696e6974696174656400000000000000604482015260640161039f565b610cae6202a300426124d3565b6001600160a01b038216600081815260076020526040908190208390555190917fc43cb7397efe481cace70f3f629e5021cf90e7ef07c4677640177a09b727efc791610cfc91815260200190565b60405180910390a250565b610d0f611db6565b6001600160a01b0381166000908152600760205260408120549003610d6e5760405162461bcd60e51b815260206004820152601560248201527414995b5bdd985b081b9bdd081a5b9a5d1a585d1959605a1b604482015260640161039f565b6001600160a01b038116600090815260076020526040902054421015610dcc5760405162461bcd60e51b815260206004820152601360248201527211195b185e481b9bdd0818dbdb5c1b195d1959606a1b604482015260640161039f565b6001600160a01b0381166000818152600360209081526040808320805460ff191690556007909152808220829055517fc6e35658c76ecdde40a54f31a91fb7c8615e9893cc0885584b27bb3433270d469190a250565b610e2a611e48565b6001600160a01b03821660009081526002602052604090819020815160e08101909252805482908290610e5c906122ac565b80601f0160208091040260200160405190810160405280929190818152602001828054610e88906122ac565b8015610ed55780601f10610eaa57610100808354040283529160200191610ed5565b820191906000526020600020905b815481529060010190602001808311610eb857829003601f168201915b50505050508152602001600182018054610eee906122ac565b80601f0160208091040260200160405190810160405280929190818152602001828054610f1a906122ac565b8015610f675780601f10610f3c57610100808354040283529160200191610f67565b820191906000526020600020905b815481529060010190602001808311610f4a57829003601f168201915b5050509183525050600282015460209091019060ff166003811115610f8e57610f8e611f13565b6003811115610f9f57610f9f611f13565b8152600382015460208201526004820154604082015260058201546001600160a01b03166060820152600682018054608090920191610fdd906122ac565b80601f0160208091040260200160405190810160405280929190818152602001828054611009906122ac565b80156110565780601f1061102b57610100808354040283529160200191611056565b820191906000526020600020905b81548152906001019060200180831161103957829003601f168201915b5050505050815250509050919050565b8160008151116110af5760405162461bcd60e51b8152602060048201526014602482015273486173682063616e6e6f7420626520656d70747960601b604482015260640161039f565b336000908152600460205260409081902090516110cd9083906122e6565b9081526040519081900360200190205460ff16156111285760405162461bcd60e51b81526020600482015260186024820152774861736820616c7265616479207573656420627920796f7560401b604482015260640161039f565b81600081511161117a5760405162461bcd60e51b815260206004820152601d60248201527f4d6574616461746120686173682063616e6e6f7420626520656d707479000000604482015260640161039f565b611182611cca565b3360009081526002602052604090206001600282015460ff1660038111156111ac576111ac611f13565b146111f95760405162461bcd60e51b815260206004820152601b60248201527f43616e206f6e6c79207570646174652070656e64696e67204356730000000000604482015260640161039f565b600081600001805461120a906122ac565b80601f0160208091040260200160405190810160405280929190818152602001828054611236906122ac565b80156112835780601f1061125857610100808354040283529160200191611283565b820191906000526020600020905b81548152906001019060200180831161126657829003601f168201915b505033600090815260046020526040808220905195965090949093506112ac92508591506122e6565b908152604051908190036020019020805491151560ff19909216919091179055816112d787826123c7565b50600182016112e686826123c7565b50428260040181905550600160046000336001600160a01b03166001600160a01b031681526020019081526020016000208760405161132591906122e6565b908152604051908190036020018120805492151560ff199093169290921790915533907f4033a6ab9f2d6676c7a4ffabf897c8129ed71a2fe527c67d9a2790b9599ae4bc9061137b9084908a908a9042906124e6565b60405180910390a25050610b7160018055565b611396611db6565b6001600160a01b0381166113de5760405162461bcd60e51b815260206004820152600f60248201526e496e76616c6964206164647265737360881b604482015260640161039f565b6001600160a01b03811660009081526003602052604090205460ff161561143d5760405162461bcd60e51b815260206004820152601360248201527220b63932b0b23c9030b71030b8383937bb32b960691b604482015260640161039f565b6001600160a01b038116600081815260036020526040808220805460ff19166001179055517f835bddf1ceee4956e4329af9edf018523c1191238187a597453f6020bcadb0429190a250565b611491611db6565b6001600160a01b03811660009081526007602052604081205490036114ed5760405162461bcd60e51b8152602060048201526012602482015271139bc81c195b991a5b99c81c995b5bdd985b60721b604482015260640161039f565b6001600160a01b0316600090815260076020526040812055565b3360009081526003602052604090205460ff168061152f57506000546001600160a01b031633145b61154b5760405162461bcd60e51b815260040161039f90612275565b336001600160a01b0383160361159a5760405162461bcd60e51b815260206004820152601460248201527321b0b73737ba103932b532b1ba1037bbb71021ab60611b604482015260640161039f565b60016001600160a01b0383166000908152600260208190526040909120015460ff1660038111156115cd576115cd611f13565b146116145760405162461bcd60e51b815260206004820152601760248201527610d5881b9bdd081c195b991a5b99c8185c1c1c9bdd985b604a1b604482015260640161039f565b6001600160a01b0382166000908152600260208190526040909120908101805460ff1916600317905560060161164a82826123c7565b506001600160a01b03821660009081526002602052604090204260049091015561167382611b96565b600a8054600101905560405133906001600160a01b038416907f7c20a7dab49132defd2c4340cfd05c46f5fab169bfbc8de86cec3dda112f2908906116bb9085904290612531565b60405180910390a35050565b33600090815260036020526040902054606090819060ff16806116f457506000546001600160a01b031633145b6117105760405162461bcd60e51b815260040161039f90612275565b600083116117545760405162461bcd60e51b815260206004820152601160248201527004c696d6974206d757374206265203e203607c1b604482015260640161039f565b600554841061179c5760405162461bcd60e51b81526020600482015260146024820152734f6666736574206f7574206f6620626f756e647360601b604482015260640161039f565b60006117b36117ab85876124d3565b600554611de5565b905060006117c18683612553565b90508067ffffffffffffffff8111156117dc576117dc611fbc565b604051908082528060200260200182016040528015611805578160200160208202803683370190505b5093508067ffffffffffffffff81111561182157611821611fbc565b60405190808252806020026020018201604052801561185a57816020015b611847611e48565b81526020019060019003908161183f5790505b509250855b82811015611b4e5760006005828154811061187c5761187c612566565b6000918252602090912001546001600160a01b03169050808661189f8a85612553565b815181106118af576118af612566565b60200260200101906001600160a01b031690816001600160a01b03168152505060026000826001600160a01b03166001600160a01b031681526020019081526020016000206040518060e001604052908160008201805461190f906122ac565b80601f016020809104026020016040519081016040528092919081815260200182805461193b906122ac565b80156119885780601f1061195d57610100808354040283529160200191611988565b820191906000526020600020905b81548152906001019060200180831161196b57829003601f168201915b505050505081526020016001820180546119a1906122ac565b80601f01602080910402602001604051908101604052809291908181526020018280546119cd906122ac565b8015611a1a5780601f106119ef57610100808354040283529160200191611a1a565b820191906000526020600020905b8154815290600101906020018083116119fd57829003601f168201915b5050509183525050600282015460209091019060ff166003811115611a4157611a41611f13565b6003811115611a5257611a52611f13565b8152600382015460208201526004820154604082015260058201546001600160a01b03166060820152600682018054608090920191611a90906122ac565b80601f0160208091040260200160405190810160405280929190818152602001828054611abc906122ac565b8015611b095780601f10611ade57610100808354040283529160200191611b09565b820191906000526020600020905b815481529060010190602001808311611aec57829003601f168201915b505050505081525050858984611b1f9190612553565b81518110611b2f57611b2f612566565b6020026020010181905250508080611b469061257c565b91505061185f565b5050509250929050565b611b60611db6565b6001600160a01b038116611b8a57604051631e4fbdf760e01b81526000600482015260240161039f565b611b9381611df8565b50565b6001600160a01b03811660009081526006602052604081205490819003611bbb575050565b611bc6600182612553565b600554909150600090611bdb90600190612553565b9050808214611c7757600060058281548110611bf957611bf9612566565b600091825260209091200154600580546001600160a01b039092169250829185908110611c2857611c28612566565b600091825260209091200180546001600160a01b0319166001600160a01b0392909216919091179055611c5c8360016124d3565b6001600160a01b039091166000908152600660205260409020555b6005805480611c8857611c88612595565b60008281526020808220830160001990810180546001600160a01b03191690559092019092556001600160a01b03949094168152600690935250506040812055565b600260015403611ced57604051633ee5aeb560e01b815260040160405180910390fd5b6002600155565b6001600160a01b038116600090815260066020526040902054158015611d5557506005541580611d555750806001600160a01b03166005600081548110611d3d57611d3d612566565b6000918252602090912001546001600160a01b031614155b15611b9357600580546001810182557f036b6384b5eca791c62761152d0c79bb0604c104a5fb6f4eb0703f3154bb3db00180546001600160a01b0319166001600160a01b039390931692831790555460009182526006602052604090912055565b6000546001600160a01b03163314611de35760405163118cdaa760e01b815233600482015260240161039f565b565b60008282188284100282185b9392505050565b600080546001600160a01b038381166001600160a01b0319831681178455604051919092169283917f8be0079c531659141344cd1fd0a4f28419497f9722a3daafe3b4186f6b6457e09190a35050565b6040805160e0810182526060808252602082015290810160008152602001600081526020016000815260200160006001600160a01b03168152602001606081525090565b80356001600160a01b0381168114611ea357600080fd5b919050565b600060208284031215611eba57600080fd5b611df182611e8c565b60005b83811015611ede578181015183820152602001611ec6565b50506000910152565b60008151808452611eff816020860160208601611ec3565b601f01601f19169290920160200192915050565b634e487b7160e01b600052602160045260246000fd5b60048110611f4757634e487b7160e01b600052602160045260246000fd5b9052565b60e081526000611f5e60e083018a611ee7565b8281036020840152611f70818a611ee7565b9050611f7f6040840189611f29565b60608301879052608083018690526001600160a01b03851660a084015282810360c0840152611fae8185611ee7565b9a9950505050505050505050565b634e487b7160e01b600052604160045260246000fd5b600082601f830112611fe357600080fd5b813567ffffffffffffffff80821115611ffe57611ffe611fbc565b604051601f8301601f19908116603f0116810190828211818310171561202657612026611fbc565b8160405283815286602085880101111561203f57600080fd5b836020870160208301376000602085830101528094505050505092915050565b6000806040838503121561207257600080fd5b823567ffffffffffffffff8082111561208a57600080fd5b61209686838701611fd2565b935060208501359150808211156120ac57600080fd5b506120b985828601611fd2565b9150509250929050565b6000815160e084526120d860e0850182611ee7565b9050602083015184820360208601526120f18282611ee7565b91505060408301516121066040860182611f29565b50606083015160608501526080830151608085015260018060a01b0360a08401511660a085015260c083015184820360c08601526121448282611ee7565b95945050505050565b602081526000611df160208301846120c3565b602081016107108284611f29565b6000806040838503121561218157600080fd5b61218a83611e8c565b9150602083013567ffffffffffffffff8111156121a657600080fd5b6120b985828601611fd2565b600080604083850312156121c557600080fd5b50508035926020909101359150565b604080825283519082018190526000906020906060840190828701845b828110156122165781516001600160a01b0316845292840192908401906001016121f1565b50505083810382850152845180825282820190600581901b8301840187850160005b8381101561226657601f198684030185526122548383516120c3565b94870194925090860190600101612238565b50909998505050505050505050565b60208082526019908201527f4e6f7420617574686f72697a656420746f20617070726f766500000000000000604082015260600190565b600181811c908216806122c057607f821691505b6020821081036122e057634e487b7160e01b600052602260045260246000fd5b50919050565b600082516122f8818460208701611ec3565b9190910192915050565b6000808354612310816122ac565b60018281168015612328576001811461233d5761236c565b60ff198416875282151583028701945061236c565b8760005260208060002060005b858110156123635781548a82015290840190820161234a565b50505082870194505b50929695505050505050565b601f8211156123c257600081815260208120601f850160051c8101602086101561239f5750805b601f850160051c820191505b818110156123be578281556001016123ab565b5050505b505050565b815167ffffffffffffffff8111156123e1576123e1611fbc565b6123f5816123ef84546122ac565b84612378565b602080601f83116001811461242a57600084156124125750858301515b600019600386901b1c1916600185901b1785556123be565b600085815260208120601f198616915b828110156124595788860151825594840194600190910190840161243a565b50858210156124775787850151600019600388901b60f8161c191681555b5050505050600190811b01905550565b60608152600061249a6060830186611ee7565b82810360208401526124ac8186611ee7565b915050826040830152949350505050565b634e487b7160e01b600052601160045260246000fd5b80820180821115610710576107106124bd565b6080815260006124f96080830187611ee7565b828103602084015261250b8187611ee7565b9050828103604084015261251f8186611ee7565b91505082606083015295945050505050565b6040815260006125446040830185611ee7565b90508260208301529392505050565b81810381811115610710576107106124bd565b634e487b7160e01b600052603260045260246000fd5b60006001820161258e5761258e6124bd565b5060010190565b634e487b7160e01b600052603160045260246000fdfea2646970667358221220621e1b641bbf8dab8905a0a6f058ea6ee95044408938ff257c15d7583cfda5c664736f6c63430008140033",
  "linkReferences": {},
  "deployedLinkReferences": {}
}